:100000000C9453000C9472000C9472000C947200C7
:100010000C9472000C9472000C9472000C94720098
:100020000C9472000C9472000C9472000C94720088
:100030000C9472000C9472000C9472000C94720078
:100040000C9472000C9472000C9472000C94720068
:100050000C9472000C9472000C9472000C94720058
:100060000C9472000C9472000C9472000C94720048
:100070000C9472000C9472000C9472000C94720038
:100080000C9472000C9472000C947200B700C000C3
:10009000F00020015001D8000801380168019801E2
:1000A000C8018001B00111241FBECFEFD0E4DEBF34
:1000B000CDBF11E0A0E0B1E0E8E9F4E000E00BBF63
:1000C00002C007900D92AE30B107D9F721E0AEE043
:1000D000B1E001C01D92A131B207E1F70E94150203
:1000E0000C944A020C940000CF93DF9300D01F922F
:1000F000CDB7DEB789837B836A8389818A3031F407
:100100008A819B81BC018DE00E94740080EC90E0AC
:10011000FC018081882F90E080729927892BB1F3B0
:1001200086EC90E02981FC01208380E090E00F9034
:100130000F900F90DF91CF910895CF93DF93CDB7BC
:10014000DEB780910F0190911001CC01A0E0B0E0EA
:1001500040E050E02CE030E0841B950B2817390775
:1001600008F42EC18A5B9F4FFC010C94410210924F
:100170000E0181E090E09093100180930F0121C166
:1001800080E290E0FC018081882F90E081709927C7
:10019000892B39F485E090E09093100180930F0152
:1001A00010C181E090E09093100180930F0109C18C
:1001B00080E290E0FC018081882F90E08170992797
:1001C000892B39F485E090E09093100180930F0122
:1001D000F8C082E090E09093100180930F01F1C08D
:1001E00080E290E0FC018081882F90E08170992767
:1001F000892B39F486E090E09093100180930F01F1
:10020000E0C082E090E09093100180930F01D9C08C
:1002100080E290E0FC018081882F90E08170992736
:10022000892B39F486E090E09093100180930F01C0
:10023000C8C083E090E09093100180930F01C1C08B
:1002400080E290E0FC018081882F90E08170992706
:10025000892B39F487E090E09093100180930F018F
:10026000B0C083E090E09093100180930F01A9C08B
:1002700080E290E0FC018081882F90E081709927D6
:10028000892B39F487E090E09093100180930F015F
:1002900098C084E090E09093100180930F0191C08A
:1002A00080E290E0FC018081882F90E081709927A6
:1002B000892B39F488E090E09093100180930F012E
:1002C00080C084E090E09093100180930F0179C08A
:1002D00080E290E0FC018081882F90E08170992776
:1002E000892B39F488E090E09093100180930F01FE
:1002F00068C08BE090E09093100180930F0161C083
:1003000080E290E0FC018081882F90E08170992745
:10031000892B39F489E090E09093100180930F01CC
:1003200050C08BE090E09093100180930F0149C082
:1003300080E290E0FC018081882F90E08170992715
:10034000892B39F489E090E09093100180930F019C
:1003500038C08CE090E09093100180930F0131C081
:1003600080E290E0FC018081882F90E081709927E5
:10037000892B39F48AE090E09093100180930F016B
:1003800020C08CE090E09093100180930F0119C081
:1003900080E290E0FC018081882F90E081709927B5
:1003A000892B39F48AE090E09093100180930F013B
:1003B00008C081E090E09093100180930F0101C08C
:1003C000000080910F019091100183309105C9F0D8
:1003D0008430910530F48130910561F0029769F025
:1003E00020C08B309105A9F08C309105B1F00497B5
:1003F00061F017C010920E0114C08CE080930E01C2
:1004000010C082E180930E010CC081E280930E0146
:1004100008C082E180930E0104C08CE080930E013D
:1004200000000000DF91CF910895CF93DF93CDB707
:10043000DEB781E290E0FC01108282E290E02FEFD3
:10044000FC01208384E290E02FEFFC01208385E211
:1004500090E0FC01108287E290E02FEFFC01208306
:1004600088E290E0FC0110821092100110920F01BE
:100470000E949D0085E290E020910E01FC01208306
:10048000F7CFEE0FFF1F0024001C0BBE0790F69164
:08049000E02D0994F894FFCF60
:0E0498000000000200000000740000000000E0
:00000001FF
